{
  "contractName": "UserContacts",
  "abi": [
    {
      "inputs": [],
      "stateMutability": "nonpayable",
      "type": "constructor"
    },
    {
      "anonymous": false,
      "inputs": [
        {
          "indexed": false,
          "internalType": "uint256",
          "name": "id",
          "type": "uint256"
        }
      ],
      "name": "UserContactCreated",
      "type": "event"
    },
    {
      "anonymous": false,
      "inputs": [
        {
          "indexed": false,
          "internalType": "uint256",
          "name": "id",
          "type": "uint256"
        }
      ],
      "name": "UserContactDeleted",
      "type": "event"
    },
    {
      "anonymous": false,
      "inputs": [
        {
          "indexed": false,
          "internalType": "uint256",
          "name": "id",
          "type": "uint256"
        }
      ],
      "name": "UserContactUpdated",
      "type": "event"
    },
    {
      "inputs": [],
      "name": "userContactCount",
      "outputs": [
        {
          "internalType": "uint256",
          "name": "",
          "type": "uint256"
        }
      ],
      "stateMutability": "view",
      "type": "function",
      "constant": true
    },
    {
      "inputs": [
        {
          "internalType": "uint256",
          "name": "",
          "type": "uint256"
        }
      ],
      "name": "userContacts",
      "outputs": [
        {
          "internalType": "uint256",
          "name": "id",
          "type": "uint256"
        },
        {
          "internalType": "string",
          "name": "firstName",
          "type": "string"
        },
        {
          "internalType": "string",
          "name": "lastName",
          "type": "string"
        },
        {
          "internalType": "string",
          "name": "telNumber",
          "type": "string"
        },
        {
          "internalType": "string",
          "name": "email",
          "type": "string"
        },
        {
          "internalType": "uint256",
          "name": "age",
          "type": "uint256"
        },
        {
          "internalType": "string",
          "name": "avatarUrl",
          "type": "string"
        },
        {
          "internalType": "string",
          "name": "websiteUrl",
          "type": "string"
        },
        {
          "internalType": "string",
          "name": "tags",
          "type": "string"
        }
      ],
      "stateMutability": "view",
      "type": "function",
      "constant": true
    },
    {
      "inputs": [
        {
          "internalType": "string",
          "name": "_firstName",
          "type": "string"
        },
        {
          "internalType": "string",
          "name": "_lastName",
          "type": "string"
        },
        {
          "internalType": "string",
          "name": "_telNumber",
          "type": "string"
        },
        {
          "internalType": "string",
          "name": "_email",
          "type": "string"
        },
        {
          "internalType": "uint256",
          "name": "_age",
          "type": "uint256"
        },
        {
          "internalType": "string",
          "name": "_avatarUrl",
          "type": "string"
        },
        {
          "internalType": "string",
          "name": "_websiteUrl",
          "type": "string"
        },
        {
          "internalType": "string",
          "name": "_tags",
          "type": "string"
        }
      ],
      "name": "createUserContact",
      "outputs": [],
      "stateMutability": "nonpayable",
      "type": "function"
    },
    {
      "inputs": [
        {
          "internalType": "uint256",
          "name": "_id",
          "type": "uint256"
        },
        {
          "internalType": "string",
          "name": "_firstName",
          "type": "string"
        },
        {
          "internalType": "string",
          "name": "_lastName",
          "type": "string"
        },
        {
          "internalType": "string",
          "name": "_telNumber",
          "type": "string"
        },
        {
          "internalType": "string",
          "name": "_email",
          "type": "string"
        },
        {
          "internalType": "uint256",
          "name": "_age",
          "type": "uint256"
        },
        {
          "internalType": "string",
          "name": "_avatarUrl",
          "type": "string"
        },
        {
          "internalType": "string",
          "name": "_websiteUrl",
          "type": "string"
        },
        {
          "internalType": "string",
          "name": "_tags",
          "type": "string"
        }
      ],
      "name": "updateUserContact",
      "outputs": [],
      "stateMutability": "nonpayable",
      "type": "function"
    },
    {
      "inputs": [
        {
          "internalType": "uint256",
          "name": "_id",
          "type": "uint256"
        }
      ],
      "name": "deleteUserContact",
      "outputs": [],
      "stateMutability": "nonpayable",
      "type": "function"
    }
  ],
  "bytecode": "0x6080604052600080553480156200001557600080fd5b50620001866040518060400160405280600581526020017f4d6174656a0000000000000000000000000000000000000000000000000000008152506040518060400160405280600581526020017f4c7562656a0000000000000000000000000000000000000000000000000000008152506040518060400160405280600c81526020017f2b333836343030343030343000000000000000000000000000000000000000008152506040518060400160405280601581526020017f696e666f4074727566666c6573756974652e636f6d000000000000000000000081525060056040518060a00160405280607e815260200162001a90607e91396040518060400160405280601481526020017f68747470733a2f2f72617269626c652e636f6d2f0000000000000000000000008152506040518060400160405280600981526020017f746167313b7461673200000000000000000000000000000000000000000000008152506200018c60201b60201c565b620004fb565b600080815480929190620001a0906200041a565b919050555060405180610120016040528060005481526020018981526020018881526020018781526020018681526020018581526020018481526020018381526020018281525060016000805481526020019081526020016000206000820151816000015560208201518160010190805190602001906200022392919062000331565b5060408201518160020190805190602001906200024292919062000331565b5060608201518160030190805190602001906200026192919062000331565b5060808201518160040190805190602001906200028092919062000331565b5060a0820151816005015560c0820151816006019080519060200190620002a992919062000331565b5060e0820151816007019080519060200190620002c892919062000331565b50610100820151816008019080519060200190620002e892919062000331565b509050507fedb05198eea8cc7a04529d04a6d3a95bbe315d7c0d96e849d85ff3bc827766666000546040516200031f919062000479565b60405180910390a15050505050505050565b8280546200033f90620004c5565b90600052602060002090601f016020900481019282620003635760008555620003af565b82601f106200037e57805160ff1916838001178555620003af565b82800160010185558215620003af579182015b82811115620003ae57825182559160200191906001019062000391565b5b509050620003be9190620003c2565b5090565b5b80821115620003dd576000816000905550600101620003c3565b5090565b7f4e487b7100000000000000000000000000000000000000000000000000000000600052601160045260246000fd5b6000819050919050565b6000620004278262000410565b91507fffffffffffffffffffffffffffffffffffffffffffffffffffffffffffffffff8214156200045d576200045c620003e1565b5b600182019050919050565b620004738162000410565b82525050565b600060208201905062000490600083018462000468565b92915050565b7f4e487b7100000000000000000000000000000000000000000000000000000000600052602260045260246000fd5b60006002820490506001821680620004de57607f821691505b60208210811415620004f557620004f462000496565b5b50919050565b611585806200050b6000396000f3fe608060405234801561001057600080fd5b50600436106100575760003560e01c80631707bdbb1461005c5780633a7262e91461009457806353a0a236146100b05780638e00c119146100cc578063c222d758146100e8575b600080fd5b61007660048036038101906100719190610e8b565b610106565b60405161008b99989796959493929190610f60565b60405180910390f35b6100ae60048036038101906100a99190610e8b565b61050c565b005b6100ca60048036038101906100c59190611153565b6105f4565b005b6100e660048036038101906100e191906112e1565b610bc5565b005b6100f0610d58565b6040516100fd919061145b565b60405180910390f35b600160205280600052604060002060009150905080600001549080600101805461012f906114a5565b80601f016020809104026020016040519081016040528092919081815260200182805461015b906114a5565b80156101a85780601f1061017d576101008083540402835291602001916101a8565b820191906000526020600020905b81548152906001019060200180831161018b57829003601f168201915b5050505050908060020180546101bd906114a5565b80601f01602080910402602001604051908101604052809291908181526020018280546101e9906114a5565b80156102365780601f1061020b57610100808354040283529160200191610236565b820191906000526020600020905b81548152906001019060200180831161021957829003601f168201915b50505050509080600301805461024b906114a5565b80601f0160208091040260200160405190810160405280929190818152602001828054610277906114a5565b80156102c45780601f10610299576101008083540402835291602001916102c4565b820191906000526020600020905b8154815290600101906020018083116102a757829003601f168201915b5050505050908060040180546102d9906114a5565b80601f0160208091040260200160405190810160405280929190818152602001828054610305906114a5565b80156103525780601f1061032757610100808354040283529160200191610352565b820191906000526020600020905b81548152906001019060200180831161033557829003601f168201915b50505050509080600501549080600601805461036d906114a5565b80601f0160208091040260200160405190810160405280929190818152602001828054610399906114a5565b80156103e65780601f106103bb576101008083540402835291602001916103e6565b820191906000526020600020905b8154815290600101906020018083116103c957829003601f168201915b5050505050908060070180546103fb906114a5565b80601f0160208091040260200160405190810160405280929190818152602001828054610427906114a5565b80156104745780601f1061044957610100808354040283529160200191610474565b820191906000526020600020905b81548152906001019060200180831161045757829003601f168201915b505050505090806008018054610489906114a5565b80601f01602080910402602001604051908101604052809291908181526020018280546104b5906114a5565b80156105025780601f106104d757610100808354040283529160200191610502565b820191906000526020600020905b8154815290600101906020018083116104e557829003601f168201915b5050505050905089565b60008111801561051e57506000548111155b156105f1576001600082815260200190815260200160002060008082016000905560018201600061054f9190610d5e565b60028201600061055f9190610d5e565b60038201600061056f9190610d5e565b60048201600061057f9190610d5e565b60058201600090556006820160006105979190610d5e565b6007820160006105a79190610d5e565b6008820160006105b79190610d5e565b50507f31c8dedd51c0431f8c9a4f3f7dd0aff32a7a00c2fff75afaf7676d28b53d38dc816040516105e8919061145b565b60405180910390a15b50565b60008911801561060657506000548911155b15610bba576000600160008b81526020019081526020016000206040518061012001604052908160008201548152602001600182018054610646906114a5565b80601f0160208091040260200160405190810160405280929190818152602001828054610672906114a5565b80156106bf5780601f10610694576101008083540402835291602001916106bf565b820191906000526020600020905b8154815290600101906020018083116106a257829003601f168201915b505050505081526020016002820180546106d8906114a5565b80601f0160208091040260200160405190810160405280929190818152602001828054610704906114a5565b80156107515780601f1061072657610100808354040283529160200191610751565b820191906000526020600020905b81548152906001019060200180831161073457829003601f168201915b5050505050815260200160038201805461076a906114a5565b80601f0160208091040260200160405190810160405280929190818152602001828054610796906114a5565b80156107e35780601f106107b8576101008083540402835291602001916107e3565b820191906000526020600020905b8154815290600101906020018083116107c657829003601f168201915b505050505081526020016004820180546107fc906114a5565b80601f0160208091040260200160405190810160405280929190818152602001828054610828906114a5565b80156108755780601f1061084a57610100808354040283529160200191610875565b820191906000526020600020905b81548152906001019060200180831161085857829003601f168201915b5050505050815260200160058201548152602001600682018054610898906114a5565b80601f01602080910402602001604051908101604052809291908181526020018280546108c4906114a5565b80156109115780601f106108e657610100808354040283529160200191610911565b820191906000526020600020905b8154815290600101906020018083116108f457829003601f168201915b5050505050815260200160078201805461092a906114a5565b80601f0160208091040260200160405190810160405280929190818152602001828054610956906114a5565b80156109a35780601f10610978576101008083540402835291602001916109a3565b820191906000526020600020905b81548152906001019060200180831161098657829003601f168201915b505050505081526020016008820180546109bc906114a5565b80601f01602080910402602001604051908101604052809291908181526020018280546109e8906114a5565b8015610a355780601f10610a0a57610100808354040283529160200191610a35565b820191906000526020600020905b815481529060010190602001808311610a1857829003601f168201915b5050505050815250509050888160200181905250878160400181905250868160600181905250858160800181905250848160a0018181525050838160c00181905250828160e001819052508181610100018190525080600160008c8152602001908152602001600020600082015181600001556020820151816001019080519060200190610ac4929190610d9e565b506040820151816002019080519060200190610ae1929190610d9e565b506060820151816003019080519060200190610afe929190610d9e565b506080820151816004019080519060200190610b1b929190610d9e565b5060a0820151816005015560c0820151816006019080519060200190610b42929190610d9e565b5060e0820151816007019080519060200190610b5f929190610d9e565b50610100820151816008019080519060200190610b7d929190610d9e565b509050507f19af3f71fec6281a45746f8aae087b5406427297504d5de091c01eb74392e1958a604051610bb0919061145b565b60405180910390a1505b505050505050505050565b600080815480929190610bd790611506565b91905055506040518061012001604052806000548152602001898152602001888152602001878152602001868152602001858152602001848152602001838152602001828152506001600080548152602001908152602001600020600082015181600001556020820151816001019080519060200190610c58929190610d9e565b506040820151816002019080519060200190610c75929190610d9e565b506060820151816003019080519060200190610c92929190610d9e565b506080820151816004019080519060200190610caf929190610d9e565b5060a0820151816005015560c0820151816006019080519060200190610cd6929190610d9e565b5060e0820151816007019080519060200190610cf3929190610d9e565b50610100820151816008019080519060200190610d11929190610d9e565b509050507fedb05198eea8cc7a04529d04a6d3a95bbe315d7c0d96e849d85ff3bc82776666600054604051610d46919061145b565b60405180910390a15050505050505050565b60005481565b508054610d6a906114a5565b6000825580601f10610d7c5750610d9b565b601f016020900490600052602060002090810190610d9a9190610e24565b5b50565b828054610daa906114a5565b90600052602060002090601f016020900481019282610dcc5760008555610e13565b82601f10610de557805160ff1916838001178555610e13565b82800160010185558215610e13579182015b82811115610e12578251825591602001919060010190610df7565b5b509050610e209190610e24565b5090565b5b80821115610e3d576000816000905550600101610e25565b5090565b6000604051905090565b600080fd5b600080fd5b6000819050919050565b610e6881610e55565b8114610e7357600080fd5b50565b600081359050610e8581610e5f565b92915050565b600060208284031215610ea157610ea0610e4b565b5b6000610eaf84828501610e76565b91505092915050565b610ec181610e55565b82525050565b600081519050919050565b600082825260208201905092915050565b60005b83811015610f01578082015181840152602081019050610ee6565b83811115610f10576000848401525b50505050565b6000601f19601f8301169050919050565b6000610f3282610ec7565b610f3c8185610ed2565b9350610f4c818560208601610ee3565b610f5581610f16565b840191505092915050565b600061012082019050610f76600083018c610eb8565b8181036020830152610f88818b610f27565b90508181036040830152610f9c818a610f27565b90508181036060830152610fb08189610f27565b90508181036080830152610fc48188610f27565b9050610fd360a0830187610eb8565b81810360c0830152610fe58186610f27565b905081810360e0830152610ff98185610f27565b905081810361010083015261100e8184610f27565b90509a9950505050505050505050565b600080fd5b600080fd5b7f4e487b7100000000000000000000000000000000000000000000000000000000600052604160045260246000fd5b61106082610f16565b810181811067ffffffffffffffff8211171561107f5761107e611028565b5b80604052505050565b6000611092610e41565b905061109e8282611057565b919050565b600067ffffffffffffffff8211156110be576110bd611028565b5b6110c782610f16565b9050602081019050919050565b82818337600083830152505050565b60006110f66110f1846110a3565b611088565b90508281526020810184848401111561111257611111611023565b5b61111d8482856110d4565b509392505050565b600082601f83011261113a5761113961101e565b5b813561114a8482602086016110e3565b91505092915050565b60008060008060008060008060006101208a8c03121561117657611175610e4b565b5b60006111848c828d01610e76565b99505060208a013567ffffffffffffffff8111156111a5576111a4610e50565b5b6111b18c828d01611125565b98505060408a013567ffffffffffffffff8111156111d2576111d1610e50565b5b6111de8c828d01611125565b97505060608a013567ffffffffffffffff8111156111ff576111fe610e50565b5b61120b8c828d01611125565b96505060808a013567ffffffffffffffff81111561122c5761122b610e50565b5b6112388c828d01611125565b95505060a06112498c828d01610e76565b94505060c08a013567ffffffffffffffff81111561126a57611269610e50565b5b6112768c828d01611125565b93505060e08a013567ffffffffffffffff81111561129757611296610e50565b5b6112a38c828d01611125565b9250506101008a013567ffffffffffffffff8111156112c5576112c4610e50565b5b6112d18c828d01611125565b9150509295985092959850929598565b600080600080600080600080610100898b03121561130257611301610e4b565b5b600089013567ffffffffffffffff8111156113205761131f610e50565b5b61132c8b828c01611125565b985050602089013567ffffffffffffffff81111561134d5761134c610e50565b5b6113598b828c01611125565b975050604089013567ffffffffffffffff81111561137a57611379610e50565b5b6113868b828c01611125565b965050606089013567ffffffffffffffff8111156113a7576113a6610e50565b5b6113b38b828c01611125565b95505060806113c48b828c01610e76565b94505060a089013567ffffffffffffffff8111156113e5576113e4610e50565b5b6113f18b828c01611125565b93505060c089013567ffffffffffffffff81111561141257611411610e50565b5b61141e8b828c01611125565b92505060e089013567ffffffffffffffff81111561143f5761143e610e50565b5b61144b8b828c01611125565b9150509295985092959890939650565b60006020820190506114706000830184610eb8565b92915050565b7f4e487b7100000000000000000000000000000000000000000000000000000000600052602260045260246000fd5b600060028204905060018216806114bd57607f821691505b602082108114156114d1576114d0611476565b5b50919050565b7f4e487b7100000000000000000000000000000000000000000000000000000000600052601160045260246000fd5b600061151182610e55565b91507fffffffffffffffffffffffffffffffffffffffffffffffffffffffffffffffff821415611544576115436114d7565b5b60018201905091905056fea264697066735822122068a726cb8d2f6413835ac2037b9adc1430089a53aabb5c9a90915af71e64ac6964736f6c634300080c003368747470733a2f2f696d672e72617269626c652e636f6d2f70726f642f696d6167652f75706c6f61642f745f696d6167655f6269672f70726f642d6974656d496d616765732f3078626334636130656461373634376138616237633230363163326531313861313861393336663133643a353834392f3139343633346337",
  "immutableReferences": {},
  "source": "// SPDX-License-Identifier: MIT\npragma solidity >=0.4.22 <0.9.0;\n\ncontract UserContacts {\n    uint public userContactCount = 0;\n\n    struct UserContact {\n        uint id;\n        string firstName;\n        string lastName;\n        string telNumber;\n        string email;\n        uint age;\n        string avatarUrl;\n        string websiteUrl;\n        string tags;\n    }\n\n    mapping(uint => UserContact) public userContacts;\n\n    event UserContactCreated(uint id);\n    event UserContactUpdated(uint id);\n    event UserContactDeleted(uint id);\n\n    constructor() {\n        createUserContact(\"Matej\", \"Lubej\", \"+38640040040\", \"info@trufflesuite.com\", 5, \"https://img.rarible.com/prod/image/upload/t_image_big/prod-itemImages/0xbc4ca0eda7647a8ab7c2061c2e118a18a936f13d:5849/194634c7\", \"https://rarible.com/\", \"tag1;tag2\");\n    }\n\n    function createUserContact(string memory _firstName, string memory _lastName, string memory _telNumber, string memory _email, uint _age, string memory _avatarUrl, string memory _websiteUrl, string memory _tags) public {\n        userContactCount++;\n        userContacts[userContactCount] = UserContact(userContactCount, _firstName, _lastName, _telNumber, _email, _age, _avatarUrl, _websiteUrl, _tags);\n\n        emit UserContactCreated(userContactCount);\n    }\n\n    function updateUserContact(uint _id, string memory _firstName, string memory _lastName, string memory _telNumber, string memory _email, uint _age, string memory _avatarUrl, string memory _websiteUrl, string memory _tags) public {\n        if (_id > 0 && _id <= userContactCount) {\n            UserContact memory _userContact = userContacts[_id];\n            _userContact.firstName = _firstName;\n            _userContact.lastName = _lastName;\n            _userContact.telNumber = _telNumber;\n            _userContact.email = _email;\n            _userContact.age = _age;\n            _userContact.avatarUrl = _avatarUrl;\n            _userContact.websiteUrl = _websiteUrl;\n            _userContact.tags = _tags;\n            userContacts[_id] = _userContact;\n\n            emit UserContactUpdated(_id);\n        }\n    }\n\n\n    function deleteUserContact(uint _id) public {\n        if (_id > 0 && _id <= userContactCount) {\n            delete userContacts[_id];\n\n            emit UserContactDeleted(_id);\n        }\n    }\n}\n",
  "sourcePath": "/Users/matejlubej/repos/keyko/truffle-playground/contracts/UserContacts.sol",
  "compiler": {
    "name": "solc",
    "version": "0.8.12+commit.f00d7308.Emscripten.clang"
  },
  "schemaVersion": "3.4.6",
  "updatedAt": "2022-04-11T06:22:18.111Z",
  "networkType": "ethereum",
  "devdoc": {
    "kind": "dev",
    "methods": {},
    "version": 1
  },
  "userdoc": {
    "kind": "user",
    "methods": {},
    "version": 1
  }
}