{
  "contractName": "UserContacts",
  "abi": [
    {
      "inputs": [],
      "stateMutability": "nonpayable",
      "type": "constructor"
    },
    {
      "anonymous": false,
      "inputs": [
        {
          "indexed": false,
          "internalType": "uint256",
          "name": "id",
          "type": "uint256"
        }
      ],
      "name": "UserContactCreated",
      "type": "event"
    },
    {
      "anonymous": false,
      "inputs": [
        {
          "indexed": false,
          "internalType": "uint256",
          "name": "id",
          "type": "uint256"
        }
      ],
      "name": "UserContactDeleted",
      "type": "event"
    },
    {
      "anonymous": false,
      "inputs": [
        {
          "indexed": false,
          "internalType": "uint256",
          "name": "id",
          "type": "uint256"
        }
      ],
      "name": "UserContactUpdated",
      "type": "event"
    },
    {
      "inputs": [],
      "name": "userContactCount",
      "outputs": [
        {
          "internalType": "uint256",
          "name": "",
          "type": "uint256"
        }
      ],
      "stateMutability": "view",
      "type": "function",
      "constant": true
    },
    {
      "inputs": [
        {
          "internalType": "uint256",
          "name": "",
          "type": "uint256"
        }
      ],
      "name": "userContacts",
      "outputs": [
        {
          "internalType": "uint256",
          "name": "id",
          "type": "uint256"
        },
        {
          "internalType": "string",
          "name": "firstName",
          "type": "string"
        },
        {
          "internalType": "string",
          "name": "lastName",
          "type": "string"
        },
        {
          "internalType": "string",
          "name": "telNumber",
          "type": "string"
        },
        {
          "internalType": "string",
          "name": "email",
          "type": "string"
        },
        {
          "internalType": "uint256",
          "name": "age",
          "type": "uint256"
        },
        {
          "internalType": "string",
          "name": "avatarUrl",
          "type": "string"
        },
        {
          "internalType": "string",
          "name": "websiteUrl",
          "type": "string"
        },
        {
          "internalType": "string",
          "name": "tags",
          "type": "string"
        }
      ],
      "stateMutability": "view",
      "type": "function",
      "constant": true
    },
    {
      "inputs": [
        {
          "internalType": "string",
          "name": "_firstName",
          "type": "string"
        },
        {
          "internalType": "string",
          "name": "_lastName",
          "type": "string"
        },
        {
          "internalType": "string",
          "name": "_telNumber",
          "type": "string"
        },
        {
          "internalType": "string",
          "name": "_email",
          "type": "string"
        },
        {
          "internalType": "uint256",
          "name": "_age",
          "type": "uint256"
        },
        {
          "internalType": "string",
          "name": "_avatarUrl",
          "type": "string"
        },
        {
          "internalType": "string",
          "name": "_websiteUrl",
          "type": "string"
        },
        {
          "internalType": "string",
          "name": "_tags",
          "type": "string"
        }
      ],
      "name": "createUserContact",
      "outputs": [],
      "stateMutability": "nonpayable",
      "type": "function"
    },
    {
      "inputs": [
        {
          "internalType": "uint256",
          "name": "_id",
          "type": "uint256"
        },
        {
          "internalType": "string",
          "name": "_firstName",
          "type": "string"
        },
        {
          "internalType": "string",
          "name": "_lastName",
          "type": "string"
        },
        {
          "internalType": "string",
          "name": "_telNumber",
          "type": "string"
        },
        {
          "internalType": "string",
          "name": "_email",
          "type": "string"
        },
        {
          "internalType": "uint256",
          "name": "_age",
          "type": "uint256"
        },
        {
          "internalType": "string",
          "name": "_avatarUrl",
          "type": "string"
        },
        {
          "internalType": "string",
          "name": "_websiteUrl",
          "type": "string"
        },
        {
          "internalType": "string",
          "name": "_tags",
          "type": "string"
        }
      ],
      "name": "updateUserContact",
      "outputs": [],
      "stateMutability": "nonpayable",
      "type": "function"
    },
    {
      "inputs": [
        {
          "internalType": "uint256",
          "name": "_id",
          "type": "uint256"
        }
      ],
      "name": "deleteUserContact",
      "outputs": [],
      "stateMutability": "nonpayable",
      "type": "function"
    }
  ],
  "bytecode": "0x6080604052600080553480156200001557600080fd5b50620001866040518060400160405280600581526020017f4d6174656a0000000000000000000000000000000000000000000000000000008152506040518060400160405280600581526020017f4c7562656a0000000000000000000000000000000000000000000000000000008152506040518060400160405280600c81526020017f2b333836343030343030343000000000000000000000000000000000000000008152506040518060400160405280601581526020017f696e666f4074727566666c6573756974652e636f6d000000000000000000000081525060056040518060a00160405280607e815260200162001a78607e91396040518060400160405280601481526020017f68747470733a2f2f72617269626c652e636f6d2f0000000000000000000000008152506040518060400160405280600981526020017f746167313b7461673200000000000000000000000000000000000000000000008152506200018c60201b60201c565b620004fb565b600080815480929190620001a0906200041a565b919050555060405180610120016040528060005481526020018981526020018881526020018781526020018681526020018581526020018481526020018381526020018281525060016000805481526020019081526020016000206000820151816000015560208201518160010190805190602001906200022392919062000331565b5060408201518160020190805190602001906200024292919062000331565b5060608201518160030190805190602001906200026192919062000331565b5060808201518160040190805190602001906200028092919062000331565b5060a0820151816005015560c0820151816006019080519060200190620002a992919062000331565b5060e0820151816007019080519060200190620002c892919062000331565b50610100820151816008019080519060200190620002e892919062000331565b509050507fedb05198eea8cc7a04529d04a6d3a95bbe315d7c0d96e849d85ff3bc827766666000546040516200031f919062000479565b60405180910390a15050505050505050565b8280546200033f90620004c5565b90600052602060002090601f016020900481019282620003635760008555620003af565b82601f106200037e57805160ff1916838001178555620003af565b82800160010185558215620003af579182015b82811115620003ae57825182559160200191906001019062000391565b5b509050620003be9190620003c2565b5090565b5b80821115620003dd576000816000905550600101620003c3565b5090565b7f4e487b7100000000000000000000000000000000000000000000000000000000600052601160045260246000fd5b6000819050919050565b6000620004278262000410565b91507fffffffffffffffffffffffffffffffffffffffffffffffffffffffffffffffff8214156200045d576200045c620003e1565b5b600182019050919050565b620004738162000410565b82525050565b600060208201905062000490600083018462000468565b92915050565b7f4e487b7100000000000000000000000000000000000000000000000000000000600052602260045260246000fd5b60006002820490506001821680620004de57607f821691505b60208210811415620004f557620004f462000496565b5b50919050565b61156d806200050b6000396000f3fe608060405234801561001057600080fd5b50600436106100575760003560e01c80631707bdbb1461005c5780633a7262e91461009457806353a0a236146100b05780638e00c119146100cc578063c222d758146100e8575b600080fd5b61007660048036038101906100719190610e73565b610106565b60405161008b99989796959493929190610f48565b60405180910390f35b6100ae60048036038101906100a99190610e73565b61050c565b005b6100ca60048036038101906100c5919061113b565b6105f4565b005b6100e660048036038101906100e191906112c9565b610bad565b005b6100f0610d40565b6040516100fd9190611443565b60405180910390f35b600160205280600052604060002060009150905080600001549080600101805461012f9061148d565b80601f016020809104026020016040519081016040528092919081815260200182805461015b9061148d565b80156101a85780601f1061017d576101008083540402835291602001916101a8565b820191906000526020600020905b81548152906001019060200180831161018b57829003601f168201915b5050505050908060020180546101bd9061148d565b80601f01602080910402602001604051908101604052809291908181526020018280546101e99061148d565b80156102365780601f1061020b57610100808354040283529160200191610236565b820191906000526020600020905b81548152906001019060200180831161021957829003601f168201915b50505050509080600301805461024b9061148d565b80601f01602080910402602001604051908101604052809291908181526020018280546102779061148d565b80156102c45780601f10610299576101008083540402835291602001916102c4565b820191906000526020600020905b8154815290600101906020018083116102a757829003601f168201915b5050505050908060040180546102d99061148d565b80601f01602080910402602001604051908101604052809291908181526020018280546103059061148d565b80156103525780601f1061032757610100808354040283529160200191610352565b820191906000526020600020905b81548152906001019060200180831161033557829003601f168201915b50505050509080600501549080600601805461036d9061148d565b80601f01602080910402602001604051908101604052809291908181526020018280546103999061148d565b80156103e65780601f106103bb576101008083540402835291602001916103e6565b820191906000526020600020905b8154815290600101906020018083116103c957829003601f168201915b5050505050908060070180546103fb9061148d565b80601f01602080910402602001604051908101604052809291908181526020018280546104279061148d565b80156104745780601f1061044957610100808354040283529160200191610474565b820191906000526020600020905b81548152906001019060200180831161045757829003601f168201915b5050505050908060080180546104899061148d565b80601f01602080910402602001604051908101604052809291908181526020018280546104b59061148d565b80156105025780601f106104d757610100808354040283529160200191610502565b820191906000526020600020905b8154815290600101906020018083116104e557829003601f168201915b5050505050905089565b60008111801561051e57506000548111155b156105f1576001600082815260200190815260200160002060008082016000905560018201600061054f9190610d46565b60028201600061055f9190610d46565b60038201600061056f9190610d46565b60048201600061057f9190610d46565b60058201600090556006820160006105979190610d46565b6007820160006105a79190610d46565b6008820160006105b79190610d46565b50507f31c8dedd51c0431f8c9a4f3f7dd0aff32a7a00c2fff75afaf7676d28b53d38dc816040516105e89190611443565b60405180910390a15b50565b6000600160008b8152602001908152602001600020604051806101200160405290816000820154815260200160018201805461062f9061148d565b80601f016020809104026020016040519081016040528092919081815260200182805461065b9061148d565b80156106a85780601f1061067d576101008083540402835291602001916106a8565b820191906000526020600020905b81548152906001019060200180831161068b57829003601f168201915b505050505081526020016002820180546106c19061148d565b80601f01602080910402602001604051908101604052809291908181526020018280546106ed9061148d565b801561073a5780601f1061070f5761010080835404028352916020019161073a565b820191906000526020600020905b81548152906001019060200180831161071d57829003601f168201915b505050505081526020016003820180546107539061148d565b80601f016020809104026020016040519081016040528092919081815260200182805461077f9061148d565b80156107cc5780601f106107a1576101008083540402835291602001916107cc565b820191906000526020600020905b8154815290600101906020018083116107af57829003601f168201915b505050505081526020016004820180546107e59061148d565b80601f01602080910402602001604051908101604052809291908181526020018280546108119061148d565b801561085e5780601f106108335761010080835404028352916020019161085e565b820191906000526020600020905b81548152906001019060200180831161084157829003601f168201915b50505050508152602001600582015481526020016006820180546108819061148d565b80601f01602080910402602001604051908101604052809291908181526020018280546108ad9061148d565b80156108fa5780601f106108cf576101008083540402835291602001916108fa565b820191906000526020600020905b8154815290600101906020018083116108dd57829003601f168201915b505050505081526020016007820180546109139061148d565b80601f016020809104026020016040519081016040528092919081815260200182805461093f9061148d565b801561098c5780601f106109615761010080835404028352916020019161098c565b820191906000526020600020905b81548152906001019060200180831161096f57829003601f168201915b505050505081526020016008820180546109a59061148d565b80601f01602080910402602001604051908101604052809291908181526020018280546109d19061148d565b8015610a1e5780601f106109f357610100808354040283529160200191610a1e565b820191906000526020600020905b815481529060010190602001808311610a0157829003601f168201915b5050505050815250509050888160200181905250878160400181905250868160600181905250858160800181905250848160a0018181525050838160c00181905250828160e001819052508181610100018190525080600160008c8152602001908152602001600020600082015181600001556020820151816001019080519060200190610aad929190610d86565b506040820151816002019080519060200190610aca929190610d86565b506060820151816003019080519060200190610ae7929190610d86565b506080820151816004019080519060200190610b04929190610d86565b5060a0820151816005015560c0820151816006019080519060200190610b2b929190610d86565b5060e0820151816007019080519060200190610b48929190610d86565b50610100820151816008019080519060200190610b66929190610d86565b509050507f19af3f71fec6281a45746f8aae087b5406427297504d5de091c01eb74392e1958a604051610b999190611443565b60405180910390a150505050505050505050565b600080815480929190610bbf906114ee565b91905055506040518061012001604052806000548152602001898152602001888152602001878152602001868152602001858152602001848152602001838152602001828152506001600080548152602001908152602001600020600082015181600001556020820151816001019080519060200190610c40929190610d86565b506040820151816002019080519060200190610c5d929190610d86565b506060820151816003019080519060200190610c7a929190610d86565b506080820151816004019080519060200190610c97929190610d86565b5060a0820151816005015560c0820151816006019080519060200190610cbe929190610d86565b5060e0820151816007019080519060200190610cdb929190610d86565b50610100820151816008019080519060200190610cf9929190610d86565b509050507fedb05198eea8cc7a04529d04a6d3a95bbe315d7c0d96e849d85ff3bc82776666600054604051610d2e9190611443565b60405180910390a15050505050505050565b60005481565b508054610d529061148d565b6000825580601f10610d645750610d83565b601f016020900490600052602060002090810190610d829190610e0c565b5b50565b828054610d929061148d565b90600052602060002090601f016020900481019282610db45760008555610dfb565b82601f10610dcd57805160ff1916838001178555610dfb565b82800160010185558215610dfb579182015b82811115610dfa578251825591602001919060010190610ddf565b5b509050610e089190610e0c565b5090565b5b80821115610e25576000816000905550600101610e0d565b5090565b6000604051905090565b600080fd5b600080fd5b6000819050919050565b610e5081610e3d565b8114610e5b57600080fd5b50565b600081359050610e6d81610e47565b92915050565b600060208284031215610e8957610e88610e33565b5b6000610e9784828501610e5e565b91505092915050565b610ea981610e3d565b82525050565b600081519050919050565b600082825260208201905092915050565b60005b83811015610ee9578082015181840152602081019050610ece565b83811115610ef8576000848401525b50505050565b6000601f19601f8301169050919050565b6000610f1a82610eaf565b610f248185610eba565b9350610f34818560208601610ecb565b610f3d81610efe565b840191505092915050565b600061012082019050610f5e600083018c610ea0565b8181036020830152610f70818b610f0f565b90508181036040830152610f84818a610f0f565b90508181036060830152610f988189610f0f565b90508181036080830152610fac8188610f0f565b9050610fbb60a0830187610ea0565b81810360c0830152610fcd8186610f0f565b905081810360e0830152610fe18185610f0f565b9050818103610100830152610ff68184610f0f565b90509a9950505050505050505050565b600080fd5b600080fd5b7f4e487b7100000000000000000000000000000000000000000000000000000000600052604160045260246000fd5b61104882610efe565b810181811067ffffffffffffffff8211171561106757611066611010565b5b80604052505050565b600061107a610e29565b9050611086828261103f565b919050565b600067ffffffffffffffff8211156110a6576110a5611010565b5b6110af82610efe565b9050602081019050919050565b82818337600083830152505050565b60006110de6110d98461108b565b611070565b9050828152602081018484840111156110fa576110f961100b565b5b6111058482856110bc565b509392505050565b600082601f83011261112257611121611006565b5b81356111328482602086016110cb565b91505092915050565b60008060008060008060008060006101208a8c03121561115e5761115d610e33565b5b600061116c8c828d01610e5e565b99505060208a013567ffffffffffffffff81111561118d5761118c610e38565b5b6111998c828d0161110d565b98505060408a013567ffffffffffffffff8111156111ba576111b9610e38565b5b6111c68c828d0161110d565b97505060608a013567ffffffffffffffff8111156111e7576111e6610e38565b5b6111f38c828d0161110d565b96505060808a013567ffffffffffffffff81111561121457611213610e38565b5b6112208c828d0161110d565b95505060a06112318c828d01610e5e565b94505060c08a013567ffffffffffffffff81111561125257611251610e38565b5b61125e8c828d0161110d565b93505060e08a013567ffffffffffffffff81111561127f5761127e610e38565b5b61128b8c828d0161110d565b9250506101008a013567ffffffffffffffff8111156112ad576112ac610e38565b5b6112b98c828d0161110d565b9150509295985092959850929598565b600080600080600080600080610100898b0312156112ea576112e9610e33565b5b600089013567ffffffffffffffff81111561130857611307610e38565b5b6113148b828c0161110d565b985050602089013567ffffffffffffffff81111561133557611334610e38565b5b6113418b828c0161110d565b975050604089013567ffffffffffffffff81111561136257611361610e38565b5b61136e8b828c0161110d565b965050606089013567ffffffffffffffff81111561138f5761138e610e38565b5b61139b8b828c0161110d565b95505060806113ac8b828c01610e5e565b94505060a089013567ffffffffffffffff8111156113cd576113cc610e38565b5b6113d98b828c0161110d565b93505060c089013567ffffffffffffffff8111156113fa576113f9610e38565b5b6114068b828c0161110d565b92505060e089013567ffffffffffffffff81111561142757611426610e38565b5b6114338b828c0161110d565b9150509295985092959890939650565b60006020820190506114586000830184610ea0565b92915050565b7f4e487b7100000000000000000000000000000000000000000000000000000000600052602260045260246000fd5b600060028204905060018216806114a557607f821691505b602082108114156114b9576114b861145e565b5b50919050565b7f4e487b7100000000000000000000000000000000000000000000000000000000600052601160045260246000fd5b60006114f982610e3d565b91507fffffffffffffffffffffffffffffffffffffffffffffffffffffffffffffffff82141561152c5761152b6114bf565b5b60018201905091905056fea2646970667358221220d9b8ee6336569ca382f789ecf2b28a1e7c8a67bc7cf1400c64d7167532b97bea64736f6c634300080c003368747470733a2f2f696d672e72617269626c652e636f6d2f70726f642f696d6167652f75706c6f61642f745f696d6167655f6269672f70726f642d6974656d496d616765732f3078626334636130656461373634376138616237633230363163326531313861313861393336663133643a353834392f3139343633346337",
  "immutableReferences": {},
  "source": "// SPDX-License-Identifier: MIT\npragma solidity >=0.4.22 <0.9.0;\n\ncontract UserContacts {\n    uint public userContactCount = 0;\n\n    struct UserContact {\n        uint id;\n        string firstName;\n        string lastName;\n        string telNumber;\n        string email;\n        uint age;\n        string avatarUrl;\n        string websiteUrl;\n        string tags;\n    }\n\n    mapping(uint => UserContact) public userContacts;\n\n    event UserContactCreated(uint id);\n    event UserContactUpdated(uint id);\n    event UserContactDeleted(uint id);\n\n    constructor() {\n        createUserContact(\"Matej\", \"Lubej\", \"+38640040040\", \"info@trufflesuite.com\", 5, \"https://img.rarible.com/prod/image/upload/t_image_big/prod-itemImages/0xbc4ca0eda7647a8ab7c2061c2e118a18a936f13d:5849/194634c7\", \"https://rarible.com/\", \"tag1;tag2\");\n    }\n\n    function createUserContact(string memory _firstName, string memory _lastName, string memory _telNumber, string memory _email, uint _age, string memory _avatarUrl, string memory _websiteUrl, string memory _tags) public {\n        userContactCount++;\n        userContacts[userContactCount] = UserContact(userContactCount, _firstName, _lastName, _telNumber, _email, _age, _avatarUrl, _websiteUrl, _tags);\n\n        emit UserContactCreated(userContactCount);\n    }\n\n    function updateUserContact(uint _id, string memory _firstName, string memory _lastName, string memory _telNumber, string memory _email, uint _age, string memory _avatarUrl, string memory _websiteUrl, string memory _tags) public {\n        UserContact memory _userContact = userContacts[_id];\n        _userContact.firstName = _firstName;\n        _userContact.lastName = _lastName;\n        _userContact.telNumber = _telNumber;\n        _userContact.email = _email;\n        _userContact.age = _age;\n        _userContact.avatarUrl = _avatarUrl;\n        _userContact.websiteUrl = _websiteUrl;\n        _userContact.tags = _tags;\n        userContacts[_id] = _userContact;\n\n        emit UserContactUpdated(_id);\n    }\n\n\n    function deleteUserContact(uint _id) public {\n        if (_id > 0 && _id <= userContactCount) {\n            delete userContacts[_id];\n\n            emit UserContactDeleted(_id);\n        }\n    }\n}\n",
  "sourcePath": "/Users/matejlubej/repos/keyko/truffle-playground/contracts/UserContacts.sol",
  "compiler": {
    "name": "solc",
    "version": "0.8.12+commit.f00d7308.Emscripten.clang"
  },
  "schemaVersion": "3.4.6",
  "updatedAt": "2022-04-10T20:41:34.408Z",
  "networkType": "ethereum",
  "devdoc": {
    "kind": "dev",
    "methods": {},
    "version": 1
  },
  "userdoc": {
    "kind": "user",
    "methods": {},
    "version": 1
  }
}